:020000040800F2
:100000003008002099020008372E0008FB2700085E
:10001000352E000863140008833300080000000038
:100020000000000000000000000000004F31000848
:100030006514000800000000392E00085131000846
:10004000B3020008B3020008B3020008B3020008BC
:10005000B3020008B3020008B3020008B3020008AC
:10006000B3020008B3020008B3020008B30200089C
:10007000B3020008B3020008B3020008B30200088C
:10008000B302000800000000B3020008B302000839
:10009000B3020008B3020008B3020008B30200086C
:1000A000B3020008B3020008B3020008B30200085C
:1000B000B3020008CD310008B3020008B302000803
:1000C000B3020008B3020008B3020008B30200083C
:1000D000B3020008B3020008B3020008B30200082C
:1000E000B3020008B3020008B3020008E5310008BB
:1000F00009320008FD310008F1310008000000005D
:1001000000000000B302000800000000B302000875
:10011000B302000800000000D9310008B302000853
:10012000B3020008B3020008B3020008B3020008DB
:10013000B30200080000000000000000B302000845
:10014000B3020008B3020008000000000000000035
:10015000000000000000000000000000000000009F
:10016000000000000000000000000000B3020008D2
:10017000B3020008000000000000000000000000C2
:1001800000000000B30200080000000000000000B2
:10019000000000000000000000000000000000005F
:1001A0000000000000000000B3020008B3020008D5
:1001B000B3020008B3020008B30200080000000008
:1001C00000000000B3020008000000000000000072
:1001D000B3020008B302000800F002F800F04CF887
:1001E0000AA090E8000C82448344AAF10107DA4592
:1001F00001D100F041F8AFF2090EBAE80F0013F098
:10020000010F18BFFB1A43F00103184724520000E6
:1002100044520000103A24BF78C878C1FAD8520777
:1002200024BF30C830C144BF04680C607047000070
:100230000023002400250026103A28BF78C1FBD8EF
:10024000520728BF30C148BF0B607047662903F0D2
:10025000B287642900F05480002070471FB503F076
:10026000A0FF00F0C1FB04000020002103F01CFDF2
:10027000E0601FBD10B510BD00F0B6FC1146FFF7E1
:10028000EDFF03F097FC00F0D4FC03B4FFF7F2FF9E
:1002900003BC00F017FD00000948804709480047EB
:1002A000FEE7FEE7FEE7FEE7FEE7FEE7FEE7FEE726
:1002B000FEE7FEE704480549054A064B7047000083
:1002C000BD310008D90100083002002030080020AC
:1002D00030040020300400200FB41CB5074B06AAE0
:1002E0007B4469460090059800F065FB0020694654
:1002F00000F074FB1CBC5DF814FB0000F906000064
:100300002DE9F0410646002410687529314616A5EE
:1003100010D0AFF30080002802DA404213A507E0B6
:1003200031688A0701D512A502E0490704D511A555
:10033000012401E0AFF3008000210A2206F1240726
:1003400009E0B0FBF2FCB0FBF2F302FB1C00303022
:1003500078541846491C0028F3D123462A463046D3
:10036000BDE8F04100F0B9B8000000002D00000029
:100370002B000000200000002DE9F0474FF0000A9C
:1003800089460446C0F820A02046E1688847002836
:1003900076D0252806D0D4E901219047206A401C58
:1003A0002062F1E7E168204600258847C4F81CA0D8
:1003B00006460027C4F818A02A2E09D0304603F0BC
:1003C00009F838B304EB8708303EC8F8186019E024
:1003D00059F8041B204604EB87029161E1688847C5
:1003E000012F064618D1E069002820DA25F0200503
:1003F0001DE0D8F8180000EB800006EB4000303814
:10040000C8F818002046E1688847064602F0E2FF77
:100410000028EED1012F0AD02E2E08D12046E16807
:1004200088477F1C0646022F45F02005C4DBA069E3
:10043000002803DA404245F00105A061E80701D039
:1004400025F01005B6B1A6F14100192802D82036D2
:1004500045F400654A463146204625604D46FFF783
:10046000F5FE58B1012806D0ED1D25F0070000F17A
:10047000080989E704E005F1040985E730468AE7C1
:10048000206ABDE8F0874FF0000200B5134694469D
:100490009646203922BFA0E80C50A0E80C50B1F1DC
:1004A0002001BFF4F7AF090728BFA0E80C5048BFF0
:1004B0000CC05DF804EB890028BF40F8042B08BF8E
:1004C000704748BF20F8022B11F0804F18BF00F88A
:1004D000012B70477047704770472DE9F0470D4674
:1004E00099469246044600F124080168880604D51E
:1004F000E06921F01001216000E00120A84201DD47
:10050000471B00E00027A1697A1902EB0900081ACD
:10051000A0612078C00602D42046AFF300800026F8
:1005200008E0D4E901211AF806009047206A401C2F
:10053000761C20624E45F4DB2078C0060AD52046A2
:10054000AFF3008006E0D4E9012130209047206A13
:10055000401C2062381EA7F10107F4DC07E0D4E953
:10056000012118F805009047206A401C2062281ECF
:10057000A5F10105F3DC2046AFF3008020780006EA
:1005800002D50220BDE8F0870120FBE770472DE986
:10059000FF4F0C461E464FF0FF378BB0D2E90001EB
:1005A000DDF860800A908A46C1F30A5505B93D46D8
:1005B000002108464FF00000BAF1000F00F440009F
:1005C00005DA00EB80004FF4400101EA50004FEAE9
:1005D0009059B9F1010F00DDB9460A9850EA4A0076
:1005E0000ED044F61050A5F2FF3545432F14B8F154
:1005F000000F1ED07542291E1EDDC9F100021CE04D
:10060000B8F1010F4FF0000001D0302103E0F243B8
:1006100005E02154401CB042FBDB304600220021A3
:1006200021540B99C1F80880C1E900200FB0BDE842
:10063000F08FBD1B6D1CDEE74A4600DA694206A852
:1006400000F05CFA06AB93E8070003AB83E8070011
:1006500050460A9900F03DFB8DE80700A0F50050D8
:100660001F3800900398002D0ADD42F21F014A4610
:100670000844002303A90390684600F0A6FD09E0A2
:10068000A0F500504A461F38002303A9039068468E
:1006900000F0B0FD8DE807000004000C03D04FF01F
:1006A000FF30410800E01046B8F1000F03D00022EF
:1006B000009215461EE0751E05D400F099F93032FF
:1006C00062556D1EF9D5B3460122084302D00022BF
:1006D0007F1C04E02078302801D100227F1E002AF0
:1006E000099784D01DE0112D07DA00F081F930322E
:1006F00062556D1C50EA0102F5D1084302D0009802
:10070000C8B10EE00021681E05E0235C625C635402
:100710002254401E491C8142F7DBAB46A81B401EF9
:100720000990002004F80B000B98099AC0F8088083
:10073000C0E9002B7AE711264FF0000857E72DE9B2
:10074000F04F88460446D21D22F0070191B0D1E94E
:100750000001CDE90A0102F015FE02460B98C00F18
:1007600001D02D2007E02068810701D52B2002E071
:10077000202101EAC000032A099001D0072A05DBE5
:1007800003464146204600F079F90BE120788006C7
:1007900001D5E06900E00620B8F1650F814606D07A
:1007A000B8F1660F18D0B8F1670F70D131E00020B2
:1007B000B9F1110F009001DB112301E009F10103F0
:1007C0000AAA01A90CA8FFF7E2FEDDE90C700026D9
:1007D00009F10105834647E001204B4600904FF0A8
:1007E00000470AAA01A90CA8FFF7D1FEDDE90DB068
:1007F0000C995D46002610B909F101000D18B9EBFE
:10080000050003D4C0F1FF3609F10105A5EB09008D
:100810002BE0B9F1010F01DA4FF001090020B9F125
:10082000110F0090484601DD112300E003460AAA9B
:1008300001A90CA8FFF7ABFEDDE90C704D460026C0
:100840008346207800070AD4AB4500DA5D4601A84C
:10085000012D04DD411911F8011C302907D04F4545
:1008600002DA17F1040F04DA012082460FE06D1E50
:10087000EEE7002F02DCED1B3E4403E0781CA842AB
:1008800000DD7D1CB81B00F1010A4FF00047207805
:10089000000703D4AA4501DB4FF0FF3A0021B7F16E
:1008A000004F0DF143088DF8431024D002202B2374
:1008B000002F01DA7F422D230A21021EA0F1010040
:1008C00000DC5FB197FBF1FC97FBF1F201FB1C7CB4
:1008D00017460CF1300C08F801CDEEE7A8F1010045
:1008E00003702188090501D5452100E06521A0F1AB
:1008F000010800F8011C09980FA9A1EB0807FF1DCA
:1009000000B10120411901EBEA70A1693844081ACD
:10091000401EA0612078C00602D42046AFF30080BC
:10092000099828B1D4E901219047206A401C20622F
:100930002078C00622D52046AFF300801EE0002EAE
:1009400004DBB34502DD01A8805D00E03020D4E97E
:1009500001219047206A401C2062761CAAF1010008
:100960005FEA000A0AD100F03FF8C0680168405C05
:10097000D4E901219047206A401C2062281EA5F17D
:100980000105DCDC07E0D4E9012118F8010B9047F0
:10099000206A401C2062381EA7F10107F3DC2046C4
:1009A000AFF30080032011B041E6000001694A1C4A
:1009B00002610878704700B58FB0CDE901310021A0
:1009C000059105497944CDE9031011466846FFF7C2
:1009D000D3FC0FB000BD0000E5FFFFFF0A6802F87E
:1009E000010B0A607047000000487047EC010020CE
:1009F00030B5B0F10A024FEA900E71F100034EEAF1
:100A0000817EB0EB0E0061EB91014FEA101E4EEAC1
:100A1000017E10EB0E0041EB11114FEA102E4EEA51
:100A2000016E10EB0E0041EB11214FEA104E4EEA21
:100A3000014E10EB0E0041EB1141401841F1000155
:100A40004FEAD00040EA41704FEAD10110EB800537
:100A50004FEA810444EA907444EB01046D1944EBBD
:100A60000404521BA3414FF0000348BF0A3200D5D3
:100A700030BD401C41F1000130BD00002DE9F041C6
:100A80001F46044603260168072A01F4006004DBC0
:100A900008B116A505E016A503E008B115A500E00C
:100AA00015A521F010002060A069C01EA0610FB143
:100AB000401EA0612046AFF300804FB1D4E9012170
:100AC00038469047206A401C2062C01C206206E025
:100AD000206AFAE7D4E9012115F8010B9047761E48
:100AE000F8D22046AFF30080BDE8F0814E414E00C1
:100AF0006E616E00494E4600696E66002DE9F04752
:100B0000814616468AB0354878440DC88DE80D00F8
:100B100032487844801C03AC0DC884E80D0041F6CF
:100B20009B300844372190FBF1F290FBF1F5A5F1E1
:100B3000800501FB12041B3C02D56442012000E049
:100B40000020DFF898A080460027FA44AAF1BE0AE8
:100B50000EE0E0070AD03246684607EB4701012362
:100B60000AEB810100F046FB8DE8070064107F1C52
:100B7000002CEED1194F7F44AE3F19E0E80715D0A5
:100B800007EB04100DF1180A90E80E008AE80E0039
:100B9000C068F04201D1981908903246012306A995
:100BA00003A800F027FB03AB83E807006D10641C6B
:100BB000002DE3D14FF0010332466946B8F1000F32
:100BC00003A802D000F001FB01E000F013FBC9E92B
:100BD0000001C9F808200AB0BDE8F0870C49000000
:100BE00000487047CC0100207546FFF7F9FFAE467C
:100BF00005006946534620F00700854618B020B529
:100C0000FFF758FBBDE820404FF000064FF000070B
:100C10004FF000084FF0000B21F00701AC46ACE8A4
:100C2000C009ACE8C009ACE8C009ACE8C0098D4611
:100C3000704710B50446AFF300802046BDE8104071
:100C4000FFF723BB4FF0013C50F8042B51F8043B55
:100C50009A4221D1A2EB0C03934313EACC1317D190
:100C600050F8042B51F8043B9A4215D1A2EB0C0327
:100C7000934313EACC130BD150F8042B51F8043BE7
:100C80009A4209D1A2EB0C03934313EACC13DBD0B5
:100C90004FF00000704700BFD01A01BAB1FA81F1DD
:100CA00001F0180122FA01F0CB40C1F12001DBB2C2
:100CB000C0B2C01A2CFA01F3D11A914311EAC31140
:100CC000E6D1704701491820ABBEFEE726000200BE
:100CD00070475FEA400C08BF91F0000F4FEA8C2389
:100CE0004FEAC12243EA51514FEA1C5018BF00F5A8
:100CF000F0404FEA300018BF41F000415FEA6C5C01
:100D000000F02980BCF1FF3F08BF40F080407047F1
:100D1000130C06BF12044FF0100C4FF0000C130E12
:100D200004BF12020CF1080C130F04BF12010CF1E6
:100D3000040C930F04BF92000CF1020CD30F04BFFC
:100D400052000CF1010C11464FF00002A0F11F00FF
:100D5000A0EB0C00704711F0004F08BF704731F056
:100D600000413FF4D5AF0B0C06BF09044FF0100C47
:100D70004FF0000C0B0E04BF09020CF1080C0B0F16
:100D800004BF09010CF1040C8B0F04BF89000CF1A6
:100D9000020CCB0F04BF49000CF1010CCCF1200375
:100DA000A0EB0C0022FA03F302FA0CF241EA030171
:100DB00000F10100704720F07F4C80EA030023F02F
:100DC0007F47ACEB070303F57C5300F0004003F1D1
:100DD000FF032DE980494FEA154B09B44FEA14434C
:100DE00025EA0B4E24EA03480FF2042606EB1327EC
:100DF00049083E785FEA320203FB0667C7F5000741
:100E000007FB06F64FEA54374FEAD64606F10206CC
:100E100007FB066CCCF1005C4FEA1C472CEA074C40
:100E200007FB06F40CFB06F504EB15464FEA961695
:100E300034BF00204FF000404FEAD13706FB07FCDB
:100E40004FEA1C4C0CFB0BF7D21B03FB0CF761EBBE
:100E500007010CFB0EF7B0EB074072EB17420CFBDF
:100E600008F734BFA2EB0742B2EB074261EB174130
:100E70004FEA0C444FEA910706FB07FC4FEA1C4C73
:100E80000CFB0BF7B0EBC74072EB573203FB0CF7D0
:100E900034BFA2EBC742B2EBC74261EB57310CFB48
:100EA0000EF7B0EBC70072EB57720CFB08F734BFBC
:100EB000A2EBC702B2EBC70261EB5771039F4FEA87
:100EC000816141EA921104EBCC044FEAD1374FEA39
:100ED000826206FB07FC42EA90124FEA80604FEA0A
:100EE0001C4C0CFB0BF7D21B03FB0CF761EB07014F
:100EF0000CFB0EF7B0EB074072EB17420CFB08F748
:100F000034BFA2EB0742B2EB074261EB17414FEA55
:100F10008C554FEA910704EB9C2406FB07FC4FEA33
:100F20001C4C0CFB0BF7B0EBC74072EB573203FBCA
:100F30000CF734BFA2EBC742B2EBC74261EB5731AB
:100F40000CFB0EF7B0EBC70072EB57720CFB08F707
:100F500034BFA2EBC702B2EBC70261EB577115EBCE
:100F60004C254FEA816141EA92114FEA82624FEAD1
:100F7000D13742EA901206FB07FC44F100044FEA25
:100F800080604FEA1C4C0CFB0BF7D21B03FB0CF7E9
:100F900061EB07010CFB0EF7B0EB074072EB174259
:100FA0000CFB08F734BFA2EB0742B2EB074261EB40
:100FB000174115EB1C154FEA813141EA92414FEA86
:100FC000823242EA90424FEA80304FEA0C7644F196
:100FD000000448EA03434EEA0B484FF0000EB2EB20
:100FE000080C71EB030724BF624639464EEB0E0E28
:100FF0004FF0000B0018524149414BEB0B0BB2EB89
:10100000080C71EB03077BF1000B24BF62463946E5
:101010004EEB0E0E4FF0000B0018524149414BEBC6
:101020000B0BB2EB080C71EB03077BF1000B24BF39
:10103000624639464EEB0E0E51EA020718BF46F0E3
:10104000010616EB0E7655F1000254F1000103D5AE
:10105000BDE88901BDE80088BDE88901BDE8004818
:10106000B619524141EB0101A3F1010370478080A1
:101070007F7E7D7C7B7A79787776767574737271F2
:1010800071706F6E6E6D6C6C6B6A6A6968686766AA
:1010900066656464636362616160605F5F5E5E5D3C
:1010A0005D5C5C5B5B5A5A595958585757565655B0
:1010B00055555454535352525251515050504F4F12
:1010C0004F4E4E4D4D4D4C4C4C4B4B4B4A4A4A4962
:1010D00049494848484747474746464645454544A5
:1010E0004444444343434342424242414141002B32
:1010F0009C4630D477002BD01CB54FEA370703B499
:101100004FF010004FF01001BAF1000F06D0BCF103
:10111000000FDCBF40F0080040F008014FF0000075
:101120000FBCBDE810400BF1010BBBF1010F08BF74
:101130005FEA170722BF12F1010211F101014FF01E
:10114000004143F1000300F0004043EA0000704713
:10115000F9D35708D0E746EA064613F1400F4FEAA5
:1011600016461FDD13F1200FDFBF16430A4600218C
:1011700020335B42BED0C3F1200746EA064602FA9E
:1011800007F74FEA164646EA0706C3F1200722FA98
:1011900003F201FA07F721FA03F14FF0000342EAE4
:1011A0000702A7E746EA020646EA06464FEA16465F
:1011B00046EA0106BCBF46EA0646360C4FF000037D
:1011C0004FF000024FF0000194E72DE9804C9A4661
:1011D000934670B491E8380007C831EA400C48BF24
:1011E00034EA430C03D5FFF7E6FDFFF780FFF0BCC0
:1011F000BDE8008C2DE9804C9A46934670B491E886
:10120000380007C810F0804F08BF13F0804F03D19B
:1012100000F005F8FFF76BFFF0BCBDE8008C20F094
:101220007F4780EA030023F07F4C07EB0C03A3F514
:101230007C5300F00040A3F1FE0392F0000F00F099
:10124000B38095F0000F00F077802DE901494FEA57
:1012500011404FEA144621EA004800FB06FC24EA4C
:10126000064708FB06F607FB08F800FB07F718EB34
:1012700006484CEB164C4FEA124B18EB07484FEA66
:1012800015464CEB174022EA0B4E0BFB06FC25EAF9
:1012900006470EFB06F607FB0EFE0BFB07F71EEBE1
:1012A000064E4CEB164C4FF000061EEB074E4CEB77
:1012B000174B18EB0B0840F1000018EB0E0B58EB26
:1012C000000840F100008F1A4FF000013CBFC943F5
:1012D000661B14BFB5EB040C00213CBFC943F61BD1
:1012E0004FEA17444EEA8E0E27EA04454FEA1C47A0
:1012F00004FB07622CEA074C05FB07F70CFB05F61D
:1013000004FB0CFC16EB074642EB174216EB0C46AF
:1013100042EB1C421BEB060658EB0202414146EA37
:101320009E0601D5BDE80189B619524141EB010184
:10133000A3F10103BDE801894FEA14454FEA1147C3
:1013400024EA054621EA074C05FB07F406FB07F7EC
:101350000CFB06F105FB0CFC11EB074144EB1744B9
:101360004FEA124711EB0C4144EB1C4422EA074CB4
:1013700005FB07F206FB07F70CFB06F605FB0CFC6A
:1013800016EB074642EB174216EB0C4642EB1C45A8
:101390006A1854F1000148BF7047B619524141EB39
:1013A0000101A3F10103704795F0000F37D04FEA18
:1013B00011424FEA144721EA024624EA074C02FB95
:1013C00007F106FB07F70CFB06F402FB0CFC14EB21
:1013D000074441EB17414FEA154714EB0C4441EB2E
:1013E0001C4125EA074C02FB07F506FB07F70CFB3F
:1013F00006F602FB0CFC16EB074645EB174516EB11
:101400000C4645EB1C42121951F1000148BF7047D0
:10141000B619524141EB0101A3F1010370474FEAB4
:1014200014454FEA114724EA054621EA074C05FB1B
:1014300007F106FB07F70CFB06F24FF0000605FB71
:101440000CFC12EB074241EB174112EB0C4251EB43
:101450001C4148BF7047921841EB0101A3F1010301
:101460007047FEE77047002240F6B83306E00021DF
:10147000491C89B29942FBD3521C92B28242F6D3E4
:10148000704772B6FEE7000070B5044600F0FCF845
:101490000546601C02D004484068044400F0F4F89B
:1014A000401BA042FAD370BD000000202DE9FC4F84
:1014B000DFF8A0A1002301250AF1040B03244FF05B
:1014C0000F0C0BF1040EBDE005FA03F632406FD0AD
:1014D0004F68012F05D0022F03D0112F01D0122FFA
:1014E00017D1D0F808905F0004FA07F829EA080934
:1014F0000097D1F80C8008FA07F848EA0908C0F804
:1015000008804768B7430E79C6F300169E403E43F5
:101510004660C6684FEA430804FA08F7BE430197DD
:101520008F6807FA08F73743C7604E68022E01D06C
:10153000122E13D1DE0800EB86060096366A5F078E
:10154000FF0E0CFA07F926EA0906D1F8109009FAFD
:1015500007F949EA0609009EC6F820900668019F2F
:10156000BE430F7907F0030707FA08F73743076010
:101570004E68F60065D5384E376E47F0010737667E
:10158000366E23F0030706F001060096334E3E4404
:10159000B146B6689F074FEA17780CFA08F7BE43C2
:1015A000B0F1904F05D02E4FB84204D1012717E07B
:1015B00047E0002714E02B4FB84201D102270FE08B
:1015C000294FB84201D103270AE0284FB84201D180
:1015D000042705E0264FB84201D1052700E0062781
:1015E00007FA08F73743C9F80870DAF80060574679
:1015F000D1F8048096435FEAC83800D516433E60B0
:10160000DBF800605F46D1F8048096435FEA8838D3
:1016100000D516433E60DEF800607746D1F80480BE
:1016200096435FEAC82800D516433E60094F0C3741
:101630003E68D1F8048096435FEA882800D51643B7
:101640003E605B1C0A6832FA03F67FF43DAFBDE8EA
:10165000FC8F000000040140001002400000014027
:101660000004004800080048000C00480010004832
:10167000001400480069084000D0012070470AB1FA
:10168000816170478162704701488068704700003F
:101690000000002002488168426811448160704760
:1016A0000000002010B50024032000F073F80F2084
:1016B00000F008F808B1012401E000F025F8204608
:1016C00010BD000070B50E4E05460024706898B13C
:1016D0004FF47A71B1FBF0F00A490968B1FBF0F000
:1016E00000F0FCFB40B9102D06D200222946501E06
:1016F00000F030F8356000E00124204670BD0000A5
:10170000000000200C0000200A4882B0016E41F069
:1017100001010166016E01F001010091816D41F04E
:1017200080518165806D00F08050009002B000F023
:10173000A1B8000000100240002809DB00F01F02E1
:10174000012191404009800000F1E020C0F8001123
:1017500070470000F0B40E4B1B680C46C3F3022325
:10176000C3F10705042D00D90425191D072901D24D
:10177000002300E0DB1E012606FA05F1491E214088
:1017800099409E40761E16403143F0BC01F012BED7
:101790000CED00E0064900F0070208684FF6FF0371
:1017A000184040EA0220034A1043086070470000D6
:1017B0000CED00E00000FA052B492C4B0A683221A1
:1017C0004A432B4940B1B0F5007F086829D020F486
:1017D000C06040F480602CE00868C0F3412002281B
:1017E00004D051F8800F20F4807022E0D1F88000FE
:1017F00020F48070C1F88000086820F4C06040F4D4
:1018000000700860B2FBF3F0401C00E0401E4A6923
:10181000520501D50028F9D1486940050AD50320B1
:101820007047C0F34120022806D051F8800F40F4E1
:101830008070086000207047D1F8800040F480700C
:10184000C1F88000086820F4C06040F400700860AF
:10185000B2FBF3F0401C00E0401E4A695205DBD5A4
:101860000028F9D1D8E700000C00002040420F000A
:10187000007000400248816841F4804181607047F7
:10188000007000402DE9F0470E4605004FF00007BC
:1018900025D0DFF8AC81D8F8000000F00F00B0428E
:1018A0000CD2D8F8001021F00F013143C8F8001015
:1018B000D8F8000000F00F00B04210D12968614C48
:1018C000C80741F2883A5AD06868DFF87C9103284B
:1018D00008D0022820682DD0400500282CDB0120EC
:1018E000BDE8F08720688001F9D5E06800F00302C8
:1018F000E068C0F30310401C032A19D0534A00BF0C
:10190000B2FBF0F0E268C2F306225043E268C2F391
:101910004162521C5200B0FBF2F0484517D9A06852
:1019200010F0F00F0CD0880711D5A86840B10EE078
:10193000474AE5E78003D0E700F092F8484506D92A
:10194000A06820F0F00040F08000A0608027A06830
:10195000696820F003000843A060FFF795FE814608
:1019600006E000BFFFF790FEA0EB090151453AD811
:10197000A068696800F00C00B0EB810FF2D1286814
:10198000810714D5400703D5A06840F4E060A0604B
:101990002878000705D5A06820F4605040F4E06086
:1019A000A060A068A96820F0F000084304E0802F40
:1019B00003D1A06820F0F000A060D8F800104046E5
:1019C00001F00F01B14216D9016821F00F01314336
:1019D0000160FFF759FE074607E000BFFFF754FE1E
:1019E000C11B514501D903207AE7D8F8000000F067
:1019F0000F00B042F2D12878400705D5A068E96809
:101A000020F4E0600843A0602878000706D5A068AD
:101A1000296920F4605040EAC100A06000F020F87D
:101A2000A1680C4AC1F30311515C01F01F01C840C9
:101A30000949086009480068BDE8F047FFF742BE61
:101A4000002002400010024000B4C4040024F4004E
:101A500000366E01BA4100080C0000200000002092
:101A6000184910B58868C0F381021748012A0BD0C5
:101A70008A68164BC2F38102022A06D08A68C2F332
:101A80008102032A03D0002010BD184610BDCA6889
:101A900002F00304CA68C2F30312521C032C02D0E2
:101AA000B0FBF2F001E0B3FBF2F0CA68C968C2F320
:101AB00006225043C1F34161491C4900B0FBF1F0DB
:101AC00010BD0000001002400024F40000366E013A
:101AD0002DE9F84304007AD02078FA4DC00747D0AA
:101AE000A868E96800F00C0001F003010C2802D09E
:101AF000082817D001E0032914D06068B0F5803FB2
:101B000017D0B0F5A02F286817D020F480302860B7
:101B1000286820F4802028606068E0B1FFF7B4FDF9
:101B2000064614E02868800322D560680028D2D0D9
:101B30001EE0286840F48030EDE740F48020286003
:101B4000F7E700BFFFF7A0FD801B642870D8286866
:101B50008003F7D50CE0FFF797FD064605E000BFD0
:101B6000FFF792FD801B6428F0D828688003F7D423
:101B7000207880074CD5A868E96800F00C0001F0D7
:101B800003010C2802D004280DD001E002290AD05C
:101B9000E068002828682BD040F480702860FFF7A8
:101BA00073FD064619E02868400502D5E068002864
:101BB00091D06868217C20F0FE4040EA01606860B6
:101BC000C1480068FFF77EFD002800D120E076E1E3
:101BD000FFF75AFD801B0228B8D828684005F7D5C2
:101BE0006868217C20F0FE4040EA016068600FE0F8
:101BF00020F480702860FFF747FD064605E000BF2F
:101C0000FFF742FD801B0228A0D828684005F7D4C2
:101C10002078000729D560690028D5F8940013D0F2
:101C200040F00100C5F89400FFF72EFD064606E0DF
:101C300090E000BFFFF728FD801B022886D8D5F86A
:101C400094008007F6D510E020F00100C5F894005C
:101C5000FFF71AFD064604E0FFF716FD801B022879
:101C600078D8D5F894008007F6D42078400761D55D
:101C7000A86D0026C00008D4A86D40F08050A8656B
:101C8000A86D012600F08050009090480168C905B9
:101C900011D40168804641F480710160FFF7F4FCC3
:101CA000074604E0FFF7F0FCC01B022852D8D8F822
:101CB0000000C005F6D5A068012815D00528D5F884
:101CC000900016D020F00100C5F89000D5F89000E3
:101CD00020F00400C5F89000A06841F28838B8B13F
:101CE000FFF7D2FC07460EE0D5F8900040F0010067
:101CF000F0E740F00400C5F89000F5E7FFF7C4FCFA
:101D0000C11B414526D8D5F890008007F6D50CE0D8
:101D1000FFF7BAFC074604E0FFF7B6FCC11B4145DC
:101D200018D8D5F890008007F6D41EB1A86D20F021
:101D30008050A8652078800629D5A0690028D5F8AC
:101D4000980013D040F00100C5F89800FFF79CFC04
:101D5000064606E077E000BFFFF796FC801B0228EE
:101D600077D8D5F898008007F6D510E020F001006C
:101D7000C5F89800FFF788FC064604E0FFF784FCEE
:101D8000801B022865D8D5F898008007F6D4E06952
:101D9000F0B3A968C1F38101032961D00228286842
:101DA00020F0807028600BD0E86820F00300E86025
:101DB000E86847490840E860FFF766FC04464BE0E6
:101DC000FFF762FC064604E0FFF75EFC801B02287A
:101DD0003FD828688001F7D4F4E908016FF00F02BA
:101DE00002EB01110843218A5204490802EB4151D8
:101DF000A26841EA02210843217D4FF07E42490852
:101E000002EB41610843217B40EAC160E96800E0E0
:101E100062E0304A11400843E860286840F0807072
:101E20002860E86840F08070E860FFF72DFC044609
:101E300005E000BFFFF728FC001B022809D828682E
:101E40008001F7D548E004E0FFF71EFC001B0228E4
:101E500002D90320BDE8F88328688001F4D43BE070
:101E60000128F7D0E868226A00F00301914226D1E8
:101E7000616A00F0F0020901103991421FD1A26A93
:101E800000F4FE41B1EB022F19D194F82C2000F0A0
:101E90007841B1EBC26F12D1218E00F4C002490823
:101EA0004905A1F50011914209D194F8341000F0D0
:101EB000C06049084906A1F1007181420CD001209F
:101EC000C8E7000000100240000000200070004041
:101ED000FFFFEEFE0C809F010020BBE710B5401E07
:101EE000B0F1807F01D3012010BD4FF0E02460618C
:101EF0000F21601701F05EFA0020A0610720206129
:101F0000002010BD7047704770477047704770479A
:101F1000F0B590F83C20012A3AD0012580F83C50D9
:101F2000022280F83D2003685A689C68194E1A4FB7
:101F3000B34201D0BB4204D122F4700C4A6842EA99
:101F40000C02DFF858C002EA0C02D1F800C04CEADB
:101F5000020CC3F804C00268B2420DD0B2F1804F47
:101F60000AD00F4B9A4207D00E4B9A4204D0BA4285
:101F700002D00D4B9A4204D1896824F080031943A2
:101F8000916080F83D50002180F83C100846F0BD7B
:101F90000220F0BD002C0140003401408FFFFFFD06
:101FA000000400400008004000400140704710B5A8
:101FB000040003D094F83D0010B107E0012010BDEB
:101FC000002084F83C00204600F022F8022084F82B
:101FD0003D00211D206801F01DF9012084F8480012
:101FE00084F83E0084F83F0084F8400084F8410003
:101FF00084F8420084F8430084F8440084F84500E3
:1020000084F8460084F8470084F83D00002010BDA5
:1020100008B500680B49884212D10B48816D41F028
:1020200010018165806D002200F0100000901146C3
:102030003620FFF78FFBBDE808403620FFF77CBB5A
:1020400008BD0000001000400010024090F83D1054
:10205000012901D001207047022180F83D1001685C
:10206000CA6842F00102CA600068104988420ED076
:10207000B0F1804F0BD00E49884208D00D498842FC
:1020800005D00D49884202D00C49884207D18168A9
:102090000B4A1140062906D0B1F5803F03D00168F4
:1020A00041F001010160002070470000002C014058
:1020B000000400400008004000340140004001409E
:1020C00007000100F0B51D49DFF868C000250127B1
:1020D000194E8C684FF4C87344F62062604512D1E3
:1020E000CF6007687F6A0F6796FBF7F6CE630068DC
:1020F000456230194863984201DA4B63F0BD904263
:10210000FCDD4A63F0BDDFF838C06045FAD10F64EA
:1021100007687F6ACF6696FBF7F68E6300684562B4
:1021200030194867984201DA4B67F0BD9042FCDDF8
:102130004A67F0BDB800002040420F0018000020A0
:10214000500100202DE9F041054690F83C000C4676
:10215000012836D0012085F83C008AB3042A42D0F9
:102160002868082A51D0D4E90023E168066A26F4D9
:1021700080560662C669076A26F4407646EA03235B
:102180004FF6FF7606EA013123F4704319434FF40A
:10219000204627F4204306EA02321A43C161026254
:1021A0002868C16921F44061C1612868C169A268D9
:1021B00041EA0221C161002085F83C00BDE8F081C0
:1021C00001E00220FAE7D4E90012E368286801F090
:1021D00087F82868816921F00C018161286881698C
:1021E000A26811430FE0D4E90012E368286801F007
:1021F000ADF82868816921F44061816128688169AE
:10220000A26841EA02218161D5E7D4E90027267B53
:10221000016A21F480710162C169036A21F003013E
:10222000394321F0F00731074FF4206647EA116186
:1022300023F4206306EA02221A43C161026228687D
:10224000C16921F00C01C1612868C169A26811430C
:10225000B0E710B5040003D094F83D0010B107E0DA
:10226000012010BD002084F83C00204600F022F838
:10227000022084F83D00211D206800F0CBFF0120E2
:1022800084F8480084F83E0084F83F0084F8400059
:1022900084F8410084F8420084F8430084F8440044
:1022A00084F8450084F8460084F8470084F83D002F
:1022B000002010BD10B586B0044614216846FEF714
:1022C000E2F82368324C002232480221A3421FD197
:1022D000836D43F002038365836D03F0020305936E
:1022E000C36C43F00203C364C06C00F002000590AD
:1022F00010208DE80700CDE9032169462648FFF745
:10230000D5F8002205211D20FFF724FA1D203BE00F
:10231000224CA3423AD1036E43F400530366036E8A
:1023200003F400530593C36C43F00103C364C06C12
:1023300000F0010005904FF400408DE80700CDE962
:10234000032169464FF09040FFF7B0F800220521C5
:102350002B20FFF7FFF92B20FFF7EEF900220521D4
:102360002C20FFF7F7F92C20FFF7E6F900220521D2
:102370002D20FFF7EFF92D20FFF7DEF900220521D0
:102380002E20FFF7E7F92E20FFF7D6F906B010BD93
:1023900000040040001002400004004800340140E6
:1023A00010B5044679B1042912D0082915D00C299A
:1023B00018D0102919D094F8430000BF94F8472092
:1023C000012817D114E094F83E0094F84420F7E770
:1023D00094F83F0094F84520F2E794F8400094F810
:1023E0004620EDE794F84100E8E794F84200E5E77D
:1023F000012A01D0012010BD022071B1042915D09D
:1024000008291CD00C2948D0102949D084F8430051
:1024100084F847000C291BD145E084F83E0084F87D
:1024200044002068C26842F0020210E084F83F00D5
:1024300084F845002068C26842F0040207E084F88E
:10244000400084F846002068C26842F00802C2607A
:102450000122206800F036FF1549206888420ED01E
:10246000B0F1804F0BD01349884208D012498842FE
:1024700005D01249884202D01149884207D18168AB
:10248000104A1140062906D0B1F5803F03D00168FB
:1024900041F001010160002010BD84F84100B7E760
:1024A00084F84200B4E72068C26842F01002CEE728
:1024B000002C0140000400400008004000340140AE
:1024C000004001400700010070B504460068016942
:1024D0004FF00005C943890715D4C168C94389076E
:1024E00011D4E91E016101202077206880698007EE
:1024F000204602D0FFF7E6FD04E000F0E3F82046B6
:1025000000F0E1F8257720680169C943490717D42D
:10251000C168C943490713D46FF004010161022067
:1025200020772068806910F4407F204602D0FFF7B2
:10253000C9FD04E000F0C6F8204600F0C4F8257795
:1025400020680169C943090716D4C168C94309074E
:1025500012D46FF008010161042020772068C0695F
:102560008007204602D0FFF7ADFD04E000F0AAF896
:10257000204600F0A8F8257720680169C943C906FC
:1025800017D4C168C943C90613D46FF010010161A3
:10259000082020772068C06910F4407F204602D0D0
:1025A000FFF790FD04E000F08DF8204600F08BF876
:1025B000257720680169C943C90708D1C168C943A3
:1025C000C90704D1891E0161204600F07DF820680A
:1025D0000169C943090609D4C168C943090605D47C
:1025E0006FF0800101612046FFF78DFC20680169D2
:1025F000C943C90509D4C168C943090605D46FF4A4
:10260000807101612046FFF77DFC20680169C943A4
:10261000490609D4C168C943490605D46FF0400191
:102620000161204600F0E8F820680169C943890685
:1026300009D4C168C943890605D46FF0200101613E
:102640002046FFF761FC20680169C943C90209D42B
:10265000C168C943C90205D46FF4801101612046E5
:10266000FFF754FC20680169C943890209D4C16895
:10267000C943890205D46FF4001101612046FFF7B8
:1026800044FC20680169C943490209D4C168C943AF
:10269000490205D46FF4800101612046FFF737FC41
:1026A00020680169C94309020BD4C168C943090202
:1026B00007D46FF4000101612046BDE87040FFF7C8
:1026C00075BC70BD7047704770B500684849884256
:1026D0007ED1484C01260025206D401C20656428D1
:1026E00001DBE6652565606D401C6065B0F57A7FAD
:1026F00001DB26666565206B401E206300D52563DF
:10270000A06D401CA065142803DB6666A56500F07B
:1027100069FE626F21688A4200DAA66606DDA06E55
:10272000012803D1A566E06C401CE064606B884220
:1027300000DAE66106DDE169012903D1E56121697D
:10274000491C21616169491CA1F530636161B83B95
:1027500001D1C4E90556216C012907D1236A9A42A7
:1027600000DA2262A36A9A4200DDA262E368012BCA
:1027700007D1626A904200DA6062E26A904200DD4C
:10278000E062666A4FF4C87044F62062864201DA5D
:10279000606203E0E66A964200DDE262266A8642F3
:1027A00001DA206203E0A66A964200DDA262A66911
:1027B000012E1BD1A561266AA56AAE1B6568AE42D3
:1027C00004DD012902D1616C491C6164666A00E084
:1027D0000CE0E16A891BA94204DD012B02D1A16C46
:1027E000491CA1642262C4E90920E06270BD0000B6
:1027F00000100040180000207047FEE700B585B0CB
:1028000014216846FDF73FFE4FF6FF700090002050
:102810000321CDE90201019069460248FEF746FE18
:1028200005B000BD0008004800B585B01421684619
:10283000FDF729FE4FF6FF70009001200190032064
:1028400003900020029069460248FEF72FFE05B073
:1028500000BD00000008004870B50024064621466F
:10286000204600F01DF900F05BF94FF49635304634
:1028700000F02AF9641CAC42F9D370BD01A100F04C
:1028800061B80000202020202020202020202020AF
:1028900020202020202020200000000070B586B0DD
:1028A00014216846FDF7EFFD1E48C16C41F004019C
:1028B000C164C16C01F004010591C16C41F00101DA
:1028C000C164C16C01F001010591C16C41F00201CC
:1028D000C164C06C032500F0020005904FF44870FD
:1028E0000124002603958DE8510069460E48FEF745
:1028F000DDFD200203958DE851004FF090446946BC
:102900002046FEF7D3FDFFF78FFFA06940F48070EB
:10291000A06105481830016841F40871016006B0F3
:1029200070BD00000010024000040048203AD2B2FE
:10293000034B02EB420203EB021200F023B800004B
:10294000CA4100082DE9F043DFF8348081460E4685
:10295000D8F80000002587B240F23F1407E0214676
:102960004846FFF7E3FF103C6D1CA4B2761C32789A
:102970000AB1142DF3D3C8F80070BDE8F08300004D
:10298000140800482DE9F04791468A46002604467F
:1029900000F086F8DFF84080012700BF00F0C0F8A3
:1029A0005FF0000539F8160007FA05F108424046C5
:1029B00001D1408800E0008800F086F86D1C102DE1
:1029C000F0D3641CE4B25146204600F069F8761C4E
:1029D000182EE3D3BDE8F0871000002010B5FFF7F4
:1029E0005DFF002000F014F8084CA080A088A0F53E
:1029F0000241303906D000F0A9FA002000F008F8B2
:102A0000A08010BD00F019FAF7E7000010000020C8
:102A100070B51D490A6842F400720A600A6842F4FF
:102A200080720A60184C103C226842F0200222603A
:102A3000164A1060086840F02000086000BF00BF20
:102A400000BF206840F020002060206840F48070C3
:102A50002060FFF7D3FE4FF09041886A40F4807009
:102A6000886200BF00BF00BF0848001F006885B231
:102A7000886940F480708861FFF7D6FE206840F4D2
:102A800000702060284670BD2804004814080048E3
:102A900001B5BDF800000149488008BD10000020C4
:102AA00010B50C460146202000F06CF82146BDE828
:102AB0001040212000F066B801B5BDF800000149C2
:102AC000088008BD10000020134A116841F400710D
:102AD0001160114910390B6843F480730B600B6867
:102AE00043F020030B600D4B1860106840F020008D
:102AF000106000BF00BF00BF086840F02000086001
:102B0000086840F48070086000BF00BF00BF08681C
:102B100040F400700860704728040048140800481A
:102B2000164A10B51068164983B2086840F4007060
:102B30000860086840F48070086011481038046824
:102B400044F020040460222414600C6844F0200443
:102B50000C6000BF00BF00BF016841F020010160B0
:102B6000016841F48071016000BF00BF00BF0168CF
:102B700041F400710160136010BD000014080048AA
:102B80002804004870B51A4C22681A4B95B21A688E
:102B900042F400721A601A6842F480721A60154A90
:102BA000103A166846F0200616602060186840F05B
:102BB0002000186000BF00BF00BF106840F0200078
:102BC0001060106840F4807010602160186840F058
:102BD0002000186000BF00BF00BF106840F0200058
:102BE0001060106840F480701060256070BD0000B7
:102BF00014080048280400482DE9F04387B0142148
:102C00006846FDF740FC3C48C16C41F00401C164DA
:102C1000C16C01F004010591C16C41F02001C16457
:102C2000C16C01F020010591C16C41F00101C1644A
:102C3000C16C01F001010591C16C41F00201C16458
:102C4000C16C01F002010591C16C41F00801C16441
:102C5000C06C2A4F00F00800059000224FF6FF716B
:102C60003846FEF70CFDDFF898800022042140462C
:102C7000FEF705FDDFF88C904FF4487600223146D0
:102C80004846FEF7FCFC01254FF47F40CDE90005E6
:102C90000024CDE9025469463846FEF707FCFF20C0
:102CA0000090CDE90154694638460394FEF7FEFBD7
:102CB000CDE9005469464FF090400294FEF7F6FBD0
:102CC0000720CDE90004694648460294FEF7EEFB72
:102CD00004200090CDE90154694640460394FEF774
:102CE000E5FB0096CDE90154694648460394FEF79A
:102CF000DDFB07B0BDE8F08300100240000800488B
:102D0000000C00480004004810B588B000241948A1
:102D10000594069404940094019402941449039435
:102D200001604F21C0E901144FF6FF71C0E903149F
:102D30008461FFF78EFA08B1FEF7A3FB049404A99F
:102D40000C480694FFF7E4F808B1FEF79AFB01205F
:102D5000CDE9004002940022694606480394FFF73B
:102D6000F1F9002801D0FEF78CFB08B010BD00007F
:102D700000040040B80000203EB500240F48009435
:102D800001940D49029401604F21C0E9011440F201
:102D9000E7318461C160FFF70AF908B1FEF771FB02
:102DA0000094694605480294FFF7B2F8002801D064
:102DB000FEF767FB3EBD000000100040040100204C
:102DC00010B588B000241A48059406940494009421
:102DD000019402941549039401604F21C0E9011444
:102DE0004FF6FF71C0E9031444618461FFF731FAC3
:102DF00008B1FEF746FB0494059404A90C48069418
:102E0000FFF786F808B1FEF73CFB0120CDE9004052
:102E100002940022694606480394FFF793F90028BC
:102E200001D0FEF72EFB08B010BD000000340140B9
:102E300050010020FEE7FEE7704730B50121002079
:102E4000FFF7A0FE4FF47A70FEF70DFB0021012082
:102E5000FFF798FE41F290711020FFF793FE4FF4B8
:102E60001C516020FFF78EFE01216120FFF78AFED2
:102E700002214620FFF786FE48F210011320FFF7DB
:102E800081FE48F2FE011220FFF77CFE4FF4A061A4
:102E90000220FFF777FE41F230010320FFF772FEB8
:102EA00040F2033421463020FFF76CFE21463120EA
:102EB000FFF768FE21463220FFF764FEE51E294633
:102EC0003320FFF75FFE03213420FFF75BFE21462E
:102ED0003520FFF757FE14213620FFF753FE214619
:102EE0003720FFF74FFE21463820FFF74BFE2146E3
:102EF0003920FFF747FE29463A20FFF743FE03211A
:102F00003B20FFF73FFE21463C20FFF73BFE4FF4FE
:102F1000A0513D20FFF736FE4FF400719220FFF7DD
:102F200031FE21469320FFF72DFE40F60D01902043
:102F3000FFF728FE41F218010320FFF723FEBDE84A
:102F4000304040F273110720FFF71CBE10B543F26A
:102F50000801E320FFF716FE1221E720FFF712FE1B
:102F600041F23121EF20FFF70DFE00210120FFF794
:102F700009FE4FF4E0610220FFF704FE41F2300148
:102F80000320FFF7FFFD00210420FFF7FBFD40F2C7
:102F900007210820FFF7F6FD00210920FFF7F2FDC9
:102FA00000210A20FFF7EEFD00210C20FFF7EAFDCB
:102FB00000210D20FFF7E6FD00210F20FFF7E2FDC5
:102FC00000211020FFF7DEFD07211120FFF7DAFDB9
:102FD00000211220FFF7D6FD00211320FFF7D2FDBC
:102FE000C820FEF751FA41F290611020FFF7CAFDA8
:102FF00040F227211120FFF7C5FD3220FEF744FAE9
:103000001D211220FFF7BEFD3220FEF73DFA4FF4DE
:1030100000611320FFF7B6FD14212920FFF7B2FD50
:103020000B212B20FFF7AEFD3220FEF72DFA0021F9
:103030002020FFF7A7FD00212120FFF7A3FD072196
:103040003020FFF79FFD40F207713120FFF79AFD16
:1030500006213220FFF796FD40F204713520FFF77C
:1030600091FD41F604713620FFF78CFD04213720D5
:10307000FFF788FD00213820FFF784FD40F206713C
:103080003920FFF77FFD40F201713C20FFF77AFD08
:103090000F213D20FFF776FD00215020FFF772FD44
:1030A000EF215120FFF76EFD00215220FFF76AFD4E
:1030B00040F23F115320FFF765FD4FF41C51602093
:1030C000FFF760FD01216120FFF75CFD00216A2010
:1030D000FFF758FD00218020FFF754FD00218120DB
:1030E000FFF750FD00218220FFF74CFD00218320D7
:1030F000FFF748FD00218420FFF744FD00218520D3
:10310000FFF740FD10219020FFF73CFD00219220A9
:10311000FFF738FD03219320FFF734FD4FF488714A
:103120009520FFF72FFD00219720FFF72BFD0021B1
:103130009820FFF727FD41F218010320FFF722FD39
:10314000BDE8104040F273110720FFF71BBD704728
:10315000FEF7A0BA10B594B038216846FDF793F990
:1031600014210EA8FDF78FF94FF40070FEF724FB31
:10317000012000900004019002200324CDE90704FF
:103180001421CDE90A100C900D9009946846FEF7C1
:103190009FFC08B172B6FEE70F20CDE90E040020B7
:1031A00010901190129002210EA8FEF76BFB0028E0
:1031B00001D072B6FEE714B010BD000002480168ED
:1031C00041F470010160704788ED00E00148FFF7AD
:1031D0007BB90000B80000200148FFF775B9000076
:1031E000040100200148FFF76FB9000050010020E2
:1031F0000148FFF769B90000500100200148FFF7BE
:1032000063B90000500100200148FFF75DB90000DC
:10321000500100202DE9F0430268234B234D244E3A
:10322000244C4FF08049984207D0484505D0A84229
:1032300003D0B04201D0A04203D122F070074A6807
:103240003A431D4FDFF874C0DFF8748098420DD008
:1032500048450BD0A84209D0B04207D0A04205D0C3
:10326000B84203D0604501D0404503D122F44075F7
:10327000CA682A434D6922F080022A4302608A68A4
:10328000C2620A688262984207D0A04205D0B84262
:1032900003D0604501D0404501D109690163012196
:1032A0004161BDE8F0830000002C014000040040B3
:1032B000000800400034014000400140004401404B
:1032C0000048014010B501F01F030121046A994034
:1032D0008C430462016A9A401143016210BD0000F0
:1032E00070B5046A24F0010404628469056A124E10
:1032F000B0420ED0B0F1804F0BD0104EB04208D08B
:103300000F4EB04205D00F4EB04202D00E4EB0422A
:1033100003D124F00304144301E044F001041A072C
:1033200024F0F00444EA126225F00A0301F00A01D5
:1033300019438261016270BD002C0140000400400D
:1033400000080040003401400040014030B5046AEC
:1033500024F0100404628469056A24F4407444EA89
:10336000022222F470444FF6FF7202EA0332224333
:10337000A02425F0A00304EA01111943826101622F
:1033800030BDFEE703B401984100009850EAC12027
:1033900018BF04204A0D18BF40F0010040F2FF7230
:1033A000B2EB515F08BF40F00200012808BF0520C2
:1033B00002B070470907090E002804DB00F1E02085
:1033C00080F80014704700F00F0000F1E02080F852
:1033D000141D704730380A2801D2012070470020A0
:1033E000704700002DE9F04724480168012942D1C7
:1033F0000027DFF88C80234C3E468946C0F80070D9
:1034000006EB460554F8250020B101280FD002280C
:1034100025D02DE004EB850081683046884738BB15
:103420004FF47A71C8F8001044F8259020E0D8F8DD
:10343000000040B104EB850A3046DAF808108847EE
:10344000012807D014E0022004EB850144F8250090
:1034500048600DE044F82570CAF8049008E004EBD9
:103460008500816830468847012801D144F82570DD
:10347000761C042EC4DBBDE8F08700007C00002031
:10348000480000209C01002010B50020074A084C8D
:10349000014600BF00EB4003401C42F8231002EB42
:1034A00083030428C3E90114F4DB10BD9C01002050
:1034B00045350008F0B41C4900204A68012A09D0AB
:1034C0000A69012A09D0194BCD69194C1A68012DD6
:1034D00008D008E04860022001E008610320F0BC49
:1034E00000F044BB8AB18E6A012E16D0022D0AD19B
:1034F000022A08D1C8610F4908600F4908600F49C6
:1035000008600F490860F0BC7047C861207810B1AE
:1035100000202070F7E70120FBE7521C88621A6048
:10352000022AF0DD1860F4E79C01002094000020DE
:10353000900000205C00002060000020640000205B
:103540002800002010B503284FF0010103DA814064
:1035500089B2054801E04FF09040FEF78BF8002853
:1035600000D0012010BD00000004004870B5AE4836
:103570002DED048B016801297DD100210160AB484C
:103580000068002837D0012877D0022873D1A8A17D
:10359000AC48FCF7A1FEAB493020FFF7D3F9AA48AD
:1035A000AAA10268A748FCF797FEA6496020FFF78A
:1035B000C9F9AB48ABA10268A248FCF78DFEA1494E
:1035C0007820FFF7BFF9AC48ACA102689D48FCF732
:1035D00083FE9C499020FFF7B5F9AD48ADA1026884
:1035E0009848FCF779FEBDEC048BA820BDE870403C
:1035F0009449FFF7A7B9AC48AC4CAD4E0078D8B3AE
:10360000206800F0F1FC41EC100B53EC102B9FED07
:10361000A99B51EC190B00F08FFB00F05BFB08EE4F
:10362000900A306800F0E0FC41EC100B51EC190BF3
:1036300053EC102B00F080FB00F04CFB08EE100A5E
:103640009EA18048FCF748FE7E493020FFF77AF9BA
:1036500018EE900A9E4C9FED9F9ADFED9F9AA04234
:1036600069DAF5EEC08AF1EE10FA64DD28EE890A17
:10367000BDEEC00A02E0D3E007E0AEE010EE102A93
:1036800096A17048FCF728FE6CE08CA16D48FCF711
:1036900023FE6C493020FFF755F9206840F2E734EB
:1036A000411E651C9FED928BA14205D2024692A15C
:1036B0006448FCF711FE18E0A84212DB00F094FC0D
:1036C00053EC182B00F038FB00F004FB00F0F8FC82
:1036D00041EC100B8DA153EC102B5A48FCF7FCFD6C
:1036E00003E090A15748FCF7F7FD56496020FFF72B
:1036F00029F93068411EA14202D202468EA145E05E
:10370000A8425ADB00F070FC53EC182B00F014FBBD
:1037100000F0E0FA00F0D4FC41EC100B8BA153EC6C
:10372000102B46E047497820FFF70CF98DA145485A
:10373000FCF7D2FD46E018EE900AA0420EDB28EE20
:10374000A90A10EE100A00F0BBFC41EC100B8AA194
:1037500053EC102B3B48FCF7BFFD03E071A1394847
:10376000FCF7BAFD37496020FFF7ECF818EE100AB5
:10377000A0420FDAB5EEC08AF1EE10FA0ADD28EEAB
:10378000090A82A1BDEEC00A10EE102A2D48FCF7EE
:10379000A3FDC7E718EE100AA0420EDB28EE290AA7
:1037A00010EE100A00F08CFC41EC100B7CA153ECE5
:1037B000102B2448FCF790FDB4E77EA12148FCF7CC
:1037C0008BFDAFE71F499020FFF7BCF8BDEC048BE1
:1037D000A820BDE87040FFF751B87BA11948FCF75D
:1037E0007BFD18493020FFF7ADF87C487CA10268CA
:1037F0001448FCF771FD13496020FFF7A3F87D48DA
:103800007DA102680F48FCF767FD0E497820FFF79D
:1038100099F87E487EA102680A48FCF75DFDD1E771
:10382000BDEC048B70BD00007400002094000020EB
:1038300020202020202020205245434420202020EA
:1038400020000000980000205C00002020202020A4
:10385000204E44413D2564202020202020000000EF
:103860006000002020202020204E44423D2564207E
:1038700020202020200000006400002020202020A4
:10388000204E48413D2564202020202020000000BB
:103890002800002020202020204E48423D25642082
:1038A0002020202020000000900000208C0000201C
:1038B0004C000020000000000000F03F20202020ED
:1038C00020202020444154412020202020000000BE
:1038D0006F12833A0024744900007A44202020208B
:1038E00020413D2564755320202020200000000049
:1038F0000000000000408F402020202020413D2576
:1039000064487A2020202020000000002020202071
:1039100020413D252E32664B487A20202020202051
:10392000000000002020202020413D4E554C4C201E
:1039300020202020200000002020202020423D25A3
:1039400064487A20202020202020000020202020F1
:1039500020423D252E32664B487A20202020202010
:1039600000000000202020202020202020202020D7
:1039700020202020200000002020202020413D2564
:103980002E32666D53202020202020002020202071
:1039900020423D2564755320202020202020000057
:1039A0002020202020423D252E32666D53202020ED
:1039B000202020002020202020423D4E554C4C202D
:1039C0002020202020000000202020202020202057
:1039D0005041524120202020200000001C000020E7
:1039E000202020202050443D2564487A202020209B
:1039F0002000000018000020202020202050483DFA
:103A00002564487A2020202020000000200000208B
:103A1000202020202050583D2564487A2020202056
:103A2000202000002DE9F0410D4E012204213046F6
:103A3000FDF725FE01240B4F2502601E05FA00F05C
:103A400081B201223846FDF71AFE641C082CF4DD11
:103A50003046BDE8F04100220421FDF710BE000011
:103A6000000C00480008004870B50B4D04460122C8
:103A700004212846FDF703FE4FF48070641EA04029
:103A800081B201220548FDF7FAFD2846BDE87040E5
:103A900000220421FDF7F3BD000C00480008004897
:103AA00070B50B4D0446012204212846FDF7E7FDC1
:103AB0004FF48070641EA04081B200220548FDF7DB
:103AC000DEFD2846BDE8704000220421FDF7D7BD89
:103AD000000C0048000800481E4810B50068002887
:103AE0004FF001000CD0FFF7BFFF1B481B4C0068D4
:103AF000216888424FF0020005DDFFF7D1FF04E0A6
:103B0000FFF7CEFFF1E7FFF7AFFF15482168006828
:103B100088424FF0030002DDFFF7C2FF01E0FFF72C
:103B2000A3FF04242046FFF79FFF641C072CF9DD48
:103B30000C480068032803DA0B480068032804DBFC
:103B4000BDE810400820FFF7ABBFBDE810400820DB
:103B5000FFF78ABF940000208C000020180000208E
:103B60004C0000205C0000206000002070B50F4E6B
:103B70000446012204213046FDF781FD4FF4807593
:103B8000641EA5400A4CA9B22046FDF773FDA9B2F8
:103B900050B100222046FDF772FD3046BDE870406E
:103BA00000220421FDF76BBD0122F3E7000C004861
:103BB00000080048FDF776FDFFF7CCFAFFF71CF888
:103BC000FFF7DAF8FFF7A0F8FFF7FAF800F004F8CB
:103BD00000F03AF8FCE7000010B5FFF755FC0022B2
:103BE00004211548FDF74BFDFEF7F8FE6420FDF7B4
:103BF0004BFC0020FEF74CFF4FF6FF70FEF75CFF1A
:103C00000020FEF729FE6420FDF73EFCFFF70AFFC7
:103C10000A48FEF71BFA0A4800240068446221465D
:103C20000748FEF7BDFB074800684462BDE8104046
:103C300000210448FEF7B4BB000C0048040100203A
:103C4000B80000205001002010B500F009F8FFF77F
:103C50008DFCFFF741FFBDE81040FFF72BBC0000D3
:103C60000F484FF47A714268642A02DA6422426093
:103C700002E08A4200DD416002688A4201DA0160A6
:103C800004E042F210739A4200DD0360054B826843
:103C90009A4201DA836070478A42FCDD8160704796
:103CA0001800002018FCFFFF10B500290AD0087882
:103CB000002807D005487844FCF7C4FF002801D04D
:103CC000002010BD0248784410BD00009A17000083
:103CD0009217000021F00042A2F16052B2F5801F5D
:103CE00001F0004328BFD2F17F6C0BD95FEA001CC2
:103CF00043EAC20242EB507018BF704728BF20F061
:103D000001007047B2F5801FBCBF184670474FEAEC
:103D1000410C1CF5001F02D2084600F047BA70B5EE
:103D200000F079F900000089FFF7F6BF4FF000407E
:103D3000A0F58000704700002DE9C04130B4DFF8E5
:103D4000A0C23CEA111418BF3CEA131400F0EC8046
:103D500081EA03051CEA111444EAD57418BF1CEA71
:103D6000131500F0C780A4EB05044FF0004545EAA9
:103D7000C12145EAC32341EA505143EA525304F1B9
:103D80007F74994204F500344FEAC0204FEAC22202
:103D900008BF904200F09C804FEA13650FF2401676
:103DA000765D4FEA134506FB05F7C7F1807706FB02
:103DB00007F74FEAD737A7FB03687642C8F5803884
:103DC000A7FB06CE38BFA8F1010807FB08E64FF0B5
:103DD000000EA6FB028CE6FB03CEDCF1000CCEF15C
:103DE000004E38BFAEF1010EA6FB0C584FF0000795
:103DF0004FF00005E6FB0E87A1FB08C6A0FB07CE2F
:103E000016EB0E0645F10005E1FB076515F1E04EE6
:103E10007EBFA4F580345FEA46066D4116F1800747
:103E200045F100054FEA17274FEA066647EA05679E
:103E3000A6F1DE46B6F1805F4FEA15251FD9384658
:103E400024F0010C05EBC471BCF1FE6F01EB0C1109
:103E500002D8F0BCBDE8008124425CBF01F5801EA1
:103E60009EEAC47F02D4F0BCBDE80081244238D46D
:103E7000F0BCA1F1C041BDE8004100F01AB94FEA21
:103E8000D22242EA43524FEAD323A7FB02864FEAEB
:103E9000D02040EA415007FB03661EEA0E0F4FEAAE
:103EA000D12105FB026658BFA6EB0056B6EB0056C3
:103EB0004FEA520E4EEAC37E18EB0E0E56EB530E2F
:103EC000BDD518EB02085E417F1C55F10005B6E731
:103ED0004FF480154FF000074FF000064FF0000838
:103EE000ADE7F0BC4FF0000001F1C04101F000412E
:103EF000BDE8008111EA0C1F0CEA131500D00CE09C
:103F000013EA0C1F00F025804FF00000F0BC81EA9E
:103F1000030101F00041BDE80081F0BCBDE80041B3
:103F200081EA030100F0C5B8F0BCBDE8004170B5FE
:103F300000F071F8097EFC3E00F007B881EA030149
:103F40004FF0000001F00041704781EA030100F0EA
:103F5000B0B8F0BCBDE800414FF000002149704707
:103F6000FFFDFBF9F7F5F4F2F0EEEDEBE9E8E6E43E
:103F7000E3E1E0DEDDDBDAD8D7D5D4D3D1D0CFCDC5
:103F8000CCCBCAC8C7C6C5C4C2C1C0BFBEBDBCBBFE
:103F9000BAB9B8B7B6B5B4B3B2B1B0AFAEADACABF9
:103FA000AAA9A8A8A7A6A5A4A3A3A2A1A09F9F9ED3
:103FB0009D9C9C9B9A999998979796959594939385
:103FC000929191908F8F8E8E8D8C8C8B8B8A89891C
:103FD000888887878685858484838382828181809F
:103FE0000000FF070000F87F10F0004248BF404289
:103FF000B0FA80F310FA03F10AD0C3F11D0303F500
:1040000080634FEA415002EB035202EBD12170472B
:104010004FF0000070470EF1020E2EF0030E5EF816
:10402000046B364205D4012A43EB030515F5001F46
:1040300012D8012841EB010C1CF5001F0CD80ED141
:104040004FEAD17C15F5001F0CEB4C0C0CF1020C67
:1040500008BF4CEBD37C04E04FF0080C01E04FEAC2
:10406000D37C0CEB4C0526FA05F606F00706B6F1F4
:10407000040C06D20EEB860CBDE870404CF0010C2F
:104080006047DFE80CF0090B02024FF000414FF0EF
:104090000000A1F5002170BD19461046012851EB22
:1040A000010418BFD4F5001484BF002001F00041C2
:1040B00070BD0808A0F500114FEA310170470000FB
:1040C00043004FEAD30C4FEA3C0C43401FBF40076C
:1040D0000CF1605113F0FE4F70471CF0006F03D1DC
:1040E00000200CF0004170470CF0004343EA507090
:1040F00010B540EACC0000F00EF800BF00000092BE
:104100004FEA0001FFF7D5BF4FF000414FF000002C
:10411000A1F5002170470EF1020E2EF0030E5EF89D
:10412000044B244204D44FEA4102B2F17F4F11D82C
:104130004FEA4003B3F17F4F0CD80ED14FEAD07C49
:10414000B2F17F4F0CEB4C0C0CF1020C08BF4CEBA6
:10415000D17C04E04FF0080C01E04FEAD17C0CEB7D
:104160004C0324FA03F404F00704B4F1040C06D25F
:104170000EEB840CBDE810404CF0010C6047DFE80A
:104180000CF0070802024FF00040A0F5800010BDBF
:104190000846420018BFD2F1807288BF00F000408C
:1041A00010BD4FF04070E1EE100A7047FF2141EA68
:1041B000D050C0057047FCF7C2BA000000000000F4
:1041C00000000102030406070809000000000000C7
:1041D00000000000000000000000000000000000DF
:1041E00000000000000000000000000000000000CF
:1041F00000000000000000000000000080018001BD
:1042000080018001800180018001800180018001A6
:104210008001800180010000000080018001000019
:104220000000000000000000000000000000CC00C2
:10423000CC00CC00CC00CC00CC0000000000000082
:10424000000000000000000000000000000000006E
:10425000000000000000000000000000000000005E
:10426000000000000000600C600C600C300630069E
:10427000FE1FFE1F300638071803FE1FFE1F18031F
:1042800018038C018C018C01000000008000E00309
:10429000F80F9C0E8C1C8C188C009800F801E0071D
:1042A000800E801C8C188C189C18B80CF00FE00342
:1042B00080008000000000000000000000000000FE
:1042C0000E181B0C110C11061106110311039B0192
:1042D0008E01C038C06C604460443044304418449F
:1042E000186C0C380000000000000000E001F00332
:1042F0003807180618063003F001F000F8009C316A
:104300000E33061E061C061C063FFC73F02100003F
:1043100000000000000000000000000000000C0091
:104320000C000C000C000C000C0000000000000051
:10433000000000000000000000000000000000007D
:104340000000000000000000000000000002000368
:104350008001C000C000600060003000300030000C
:104360003000300030003000300060006000C000DD
:10437000C000800100030002000000002000600077
:10438000C000800180010003000300060006000653
:104390000006000600060006000600030003800178
:1043A0008001C0006000200000000000000000004C
:1043B000000000000000C000C000D806F807E001BF
:1043C000300338070000000000000000000000007B
:1043D00000000000000000000000000000000000DD
:1043E0000000000000008001800180018001800148
:1043F000FC3FFC3F800180018001800180010000C2
:1044000000000000000000000000000000000000AC
:10441000000000000000000000000000000000009C
:10442000000000000000000000000000800180018A
:1044300000010001800000000000000000000000FA
:10444000000000000000000000000000000000006C
:104450000000E007E007000000000000000000008E
:10446000000000000000000000000000000000004C
:10447000000000000000000000000000000000003C
:10448000000000000000000000000000C000C000AC
:10449000000000000000000000000000000C000C04
:1044A00000060006000600030003000380038001ED
:1044B00080018001C000C000C000600060000000FA
:1044C000000000000000000000000000E003F00712
:1044D000380E180C0C180C180C180C180C180C189A
:1044E0000C180C180C18180C380EF007E00300001C
:1044F000000000000000000000000000000180013A
:10450000C001F001980188018001800180018001D3
:104510008001800180018001800180018001000014
:10452000000000000000000000000000E003F80FA1
:10453000180C0C180C1800180018000C00060003CA
:104540008001C000600030001800FC1FFC1F00004C
:10455000000000000000000000000000E001F8077B
:10456000180E0C0C0C0C000C0006C003C007000C4D
:10457000001800180C180C18180CF807E0030000BD
:10458000000000000000000000000000000C000E11
:10459000000F000F800DC00C600C600C300C180C6C
:1045A0000C0CFC3FFC3F000C000C000C000C00004D
:1045B000000000000000000000000000F80FF80FED
:1045C000180018000C00EC03FC071C0E001C00185F
:1045D000001800180C181C0C180EF807E003000057
:1045E000000000000000000000000000C007F00F05
:1045F000381C181818000C00CC03EC0F3C0E1C1CC7
:104600000C180C180C18181C380EF007E0030000EA
:10461000000000000000000000000000FC1FFC1F64
:10462000000C00060006000380038001C001C000EA
:10463000E0006000600070003000300030000000DA
:10464000000000000000000000000000E003F00790
:10465000380E180C180C180C3806F007F007180C58
:104660000C180C180C180C18380CF80FE00300008C
:10467000000000000000000000000000E003F00760
:10468000380E1C0C0C180C180C181C1C381EF81BAF
:10469000E0190018000C000C1C0EF807F0010000D7
:1046A000000000000000000000000000000000000A
:1046B00000000000000080018001000000000000F8
:1046C00000000000000000000000800180010000E8
:1046D00000000000000000000000000000000000DA
:1046E00000000000000080018001000000000000C8
:1046F00000000000000000000000800180010001B7
:104700000001800000000000000000000000000028
:10471000000000000000000000000010001C800FDE
:10472000E003F8001800F800E003800F001C001000
:104730000000000000000000000000000000000079
:1047400000000000000000000000F81F0000000052
:104750000000F81F00000000000000000000000042
:104760000000000000000000000000000000000049
:104770000000000000000000000008003800F00108
:10478000C007001F0018001FC007F0013800080014
:10479000000000000000000000000000E003F80F2F
:1047A000180C0C180C180018000C000600038001EF
:1047B000C000C000C00000000000C000C000000039
:1047C0000000000000000000000000000000E00702
:1047D00018180420C229224A1144094409440944F2
:1047E00009221113E20C024004201818E00700000F
:1047F00000000000000000000000000080038003B3
:10480000C006C006C006600C600C301830183018A6
:10481000F83FF83F1C700C600C6006C006C000003A
:10482000000000000000000000000000FC03FC0F7E
:104830000C0C0C180C180C180C0CFC07FC0F0C18AA
:104840000C300C300C300C300C18FC1FFC07000036
:10485000000000000000000000000000C007F01F82
:1048600038381C300C700660060006000600060092
:104870000600060006600C701C30F01FE007000008
:10488000000000000000000000000000FE03FE0F1A
:10489000060E0618061806300630063006300630BA
:1048A0000630063006180618060EFE0FFE0300003E
:1048B000000000000000000000000000FC3FFC3F82
:1048C0000C000C000C000C000C00FC1FFC1F0C006A
:1048D0000C000C000C000C000C00FC3FFC3F000026
:1048E000000000000000000000000000F83FF83F5A
:1048F00018001800180018001800F81FF81F1800FA
:1049000018001800180018001800180018000000FF
:10491000000000000000000000000000E00FF83F71
:104920003C780E6006E007C00300030003FE03FEB0
:1049300003C007C006C00EC03CF0F83FE00F000007
:104940000000000000000000000000000C300C30EF
:104950000C300C300C300C300C30FC3FFC3F0C3079
:104960000C300C300C300C300C300C300C300000A3
:104970000000000000000000000000008001800135
:10498000800180018001800180018001800180011F
:104990008001800180018001800180018001000090
:1049A00000000000000000000000000000060006FB
:1049B00000060006000600060006000600060006C7
:1049C00000060006180618063807F003E00100008C
:1049D0000000000000000000000000000630061883
:1049E000060C060606038601C60066007600DE0099
:1049F0008E0106030606060C061806300660000047
:104A00000000000000000000000000001800180076
:104A100018001800180018001800180018001800D6
:104A200018001800180018001800F81FF81F0000E0
:104A30000000000000000000000000000EE01EF07A
:104A40001EF01EF036D836D836D836D866CC66CCAE
:104A500066CCC6C6C6C6C6C6C6C686C386C3000062
:104A60000000000000000000000000000C301C30BE
:104A70003C303C306C306C30CC30CC308C310C3332
:104A80000C330C360C360C3C0C3C0C380C30000053
:104A9000000000000000000000000000E007F81F18
:104AA0001C380E70066003C003C003C003C003C0FF
:104AB00003C003C006600E701C38F81FE00700003A
:104AC000000000000000000000000000FC0FFC1FC0
:104AD0000C380C300C300C300C300C18FC1FFC0760
:104AE0000C000C000C000C000C000C000C00000072
:104AF000000000000000000000000000E007F81FB8
:104B00001C380E70066003E003C003C003C003C07E
:104B100003C007E006630E3F1C3CF83FE0F700C00F
:104B2000000000000000000000000000FE0FFE1F5B
:104B300006380630063006300638FE1FFE0706032C
:104B40000606060C06180618063006300660000039
:104B5000000000000000000000000000E003F80F6B
:104B60001C0C0C180C180C001C00F803E00F001EA5
:104B70000038063006300E301C1CF80FE00700002D
:104B8000000000000000000000000000FE7FFE7F2B
:104B9000800180018001800180018001800180010D
:104BA000800180018001800180018001800100007E
:104BB0000000000000000000000000000C300C307D
:104BC0000C300C300C300C300C300C300C300C3005
:104BD0000C300C300C300C301818F81FE0070000B7
:104BE000000000000000000000000000036006302C
:104BF000063006300C180C180C18180C180C380E4F
:104C000030063006700760036003C001C001000079
:104C10000000000000000000000000000360C3610D
:104C2000C361C361663366336633663366336633A6
:104C30006C1B6C1B6C1B2C1A3C1E380E380E0000B3
:104C40000000000000000000000000000FE00C70F9
:104C500018303018700C600EC00780038003C0034A
:104C6000E006700C301C18180C300E6007E00000D5
:104C700000000000000000000000000003C006600B
:104C80000C301C383818300C6006E007C003800177
:104C9000800180018001800180018001800100008D
:104CA000000000000000000000000000FC7FFC7F0E
:104CB000006000300018000C000600038001C000F6
:104CC0006000300018000C000600FE7FFE7F000030
:104CD000000000000000000000000000E003E0030E
:104CE00060006000600060006000600060006000C4
:104CF00060006000600060006000600060006000B4
:104D000060006000E003E0030000000030003000BD
:104D1000600060006000C000C000C000C0018001F1
:104D2000800180010003000300030006000600006C
:104D3000000000000000000000000000E003E003AD
:104D4000000300030003000300030003000300034B
:104D5000000300030003000300030003000300033B
:104D600000030003E003E003000000000000C001B6
:104D7000C00160036003600330063006180C180C95
:104D80000000000000000000000000000000000023
:104D90000000000000000000000000000000000013
:104DA0000000000000000000000000000000000003
:104DB000000000000000000000000000FFFFFFFFF7
:104DC0000000000000000000000000000C000C00CB
:104DD0000C000C000C000C000000000000000000A3
:104DE00000000000000000000000000000000000C3
:104DF00000000000000000000000000000000000B3
:104E0000000000000000F003F8071C0C0C0C000F61
:104E1000F00FF80C0C0C0C0C1C0FF80FF018000025
:104E20000000000000000000000000001800180052
:104E3000180018001800D803F80F380C18181818A4
:104E40001818181818181818380CF80FD80300007C
:104E50000000000000000000000000000000000052
:104E6000000000000000C003F007300E180C18000E
:104E7000180018001800180C300EF007C0030000CE
:104E800000000000000000000000000000180018F2
:104E9000001800180018C01BF01F301C1818181834
:104EA0001818181818181818301CF01FC01B00000C
:104EB00000000000000000000000000000000000F2
:104EC000000000000000C003F00F300C1818F81F9D
:104ED000F81F180018003818301CF00FC007000029
:104EE000000000000000000000000000800FC00F64
:104EF000C000C000C000F007F007C000C000C00044
:104F0000C000C000C000C000C000C000C000000061
:104F10000000000000000000000000000000000091
:104F2000000000000000E00DF80F180E0C0C0C0C37
:104F30000C0C0C0C0C0C0C0C180EF80FE00D000CEB
:104F40000C0C1C06F807F001000000001800180007
:104F5000180018001800D807F80F381C181818186F
:104F600018181818181818181818181818180000F1
:104F7000000000000000000000000000C000C000B1
:104F8000000000000000C000C000C000C000C00061
:104F9000C000C000C000C000C000C000C0000000D1
:104FA000000000000000000000000000C000C00081
:104FB000000000000000C000C000C000C000C00031
:104FC000C000C000C000C000C000C000C000C000E1
:104FD000C000C000F8007800000000000C000C00C9
:104FE0000C000C000C000C0C0C060C038C01CC000B
:104FF0006C00FC009C018C030C030C060C0C0000E4
:10500000000000000000000000000000C000C00020
:10501000C000C000C000C000C000C000C000C00090
:10502000C000C000C000C000C000C000C000000040
:105030000000000000000000000000000000000070
:105040000000000000007C3CFF7EC7E383C183C1F9
:1050500083C183C183C183C183C183C183C1000074
:105060000000000000000000000000000000000040
:105070000000000000009807F80F381C18181818D6
:1050800018181818181818181818181818180000D0
:105090000000000000000000000000000000000010
:1050A000000000000000C003F00F300C18181818A2
:1050B0001818181818181818300CF00FC003000032
:1050C00000000000000000000000000000000000E0
:1050D000000000000000D803F80F380C181818184A
:1050E0001818181818181818380CF80FD8031800C2
:1050F0001800180018001800000000000000000050
:10510000000000000000C01BF01F301C1818181809
:105110001818181818181818301CF01FC01B001881
:10512000001800180018001800000000000000001F
:10513000000000000000B007F003700030003000F5
:10514000300030003000300030003000300000000F
:10515000000000000000000000000000000000004F
:10516000000000000000E003F003380E180C3800C7
:10517000F003C007000C180C380EF007E003000025
:10518000000000000000000000000000000080009F
:10519000C000C000C000F007F007C000C000C000A1
:1051A000C000C000C000C000C000C00780070000F1
:1051B00000000000000000000000000000000000EF
:1051C00000000000000018181818181818181818EF
:1051D0001818181818181818381CF01FE0190000B3
:1051E00000000000000000000000000000000000BF
:1051F0000000000000000C18180C180C180C3006E9
:1052000030063006600360036003C001C001000087
:10521000000000000000000000000000000000008E
:10522000000000000000C141C141C36163636363CA
:1052300063633636363636361C1C1C1C1C1C0000BC
:10524000000000000000000000000000000000005E
:105250000000000000001C38381C300C60066003A1
:105260006003600360036006300C381C1C380000CB
:10527000000000000000000000000000000000002E
:105280000000000000001830301830187018600C52
:10529000600CE00CC006C006800380038003800120
:1052A0008001C001F000700000000000000000005C
:1052B000000000000000FC1FFC1F000C00060003A3
:1052C0008001C000600030001800FC1FFC1F0000BF
:1052D000000000000000000000000000000380014A
:1052E000C000C000C000C000C000C000600060007E
:1052F000300060004000C000C000C000C000C0001E
:10530000C000800100030000000000008001800157
:105310008001800180018001800180018001800185
:105320008001800180018001800180018001800175
:105330008001800180018001000000006000C00049
:10534000C001800180018001800180010003000311
:1053500000060003000180018001800180018001BE
:105360008001C0006000000000000000000000009C
:1053700000000000000000000000F010F81F080FFF
:10538000000000000000000000000000000000001D
:1053900000000000000000000000000002400000CB
:1053A000000000A00000000005400000000000C850
:1053B000000000000C4000000000409C00000000C5
:1053C000194000000020BCBE000000003440000076
:1053D000BFC91B8E00000004B5400000504BCFD069
:1053E0006607E2CF010000006C4100003E8251AA36
:1053F000DFEEA73401000000D9420000DCB5A0E2D6
:105400003A301F97FFFFFFFFB4450000FD25A0C8FD
:10541000E9A3C14FFFFFFFFFFF3F00000000008036
:1054200000000000FF3F00000000008000000000BE
:105430006C540008000000209800000014020008CE
:10544000045500089800002098070000300200086A
:105450001C00000043000000F8FFFFFF0C000000EC
:105460000E0000000F0000002E00000010000000E1
:1054700001000000000000000024F4000000FFFF15
:105480000000000088130000E80300000000000096
:10549000000000000000000000000000000000000C
:1054A00000000000204E0000204E0000900100008F
:1054B000900100000000000000000000000000005B
:1054C00000000000000000000000000000000000DC
:1054D00000000000000000000000000000000000CC
:1054E00000000000000000000000000000000000BC
:1054F00000000000000000000000000000000000AC
:0455000000000000A7
:04000005080001D915
:00000001FF
